:020000040800F2
:10000000C8040020B54400082D4300082F43000811
:100010003143000833430008354300080000000066
:10002000000000000000000000000000374300084E
:1000300039430008000000003B4300083D4300082E
:10004000ED440008F1440008F5440008F9440008B4
:10005000FD44000801450008054500080945000861
:100060000D45000811450008154500081945000810
:100070001D450008214500082545000829450008C0
:100080002D45000831450008354500084943000862
:1000900053430008394500083D4500084145000824
:1000A00045450008494500084D45000851450008F0
:1000B00055450008594500085D45000861450008A0
:1000C00065450008694500086D4500087145000850
:1000D00075450008794500087D4500088145000800
:1000E00085450008894500088D45000838B504009D
:1000F00000252078C00740F1D480DFF8540A00685A
:1001000010F00C0004280BD0DFF8440A006810F04F
:100110000C0008282AD1DFF8380A0068C00325D56A
:100120004FF48040B0FA80F050F02000C0B2400997
:10013000C0B2012803D1DFF81C0A006806E04FF4C2
:100140008040B0FA80F0DFF8180A00684FF4804170
:10015000B1FA81F111F01F01C840C00740F1A18040
:100160006068002840F09D80012033E36068B0F5AE
:10017000803F08D1DFF8DC09006850F48030DFF8F8
:10018000D419086038E06068002810D1DFF8C4098D
:10019000006830F48030DFF8BC190860DFF8B4097B
:1001A000006830F48020DFF8AC19086024E0606853
:1001B000B0F5A02F10D1DFF89C09006850F4802022
:1001C000DFF890190860DFF88C09006850F480307F
:1001D000DFF8801908600FE0DFF87809006830F474
:1001E0008030DFF870190860DFF86809006830F4C3
:1001F0008020DFF8601908606068002828D000F0CF
:10020000F0FC05004FF48040B0FA80F050F0200080
:10021000C0B24009C0B2012803D1DFF83809006834
:1002200006E04FF48040B0FA80F0DFF8340900684F
:100230004FF48041B1FA81F111F01F01C840C007AD
:100240002FD400F0CEFC401B6528DBD30320C1E295
:1002500000F0C7FC05004FF48040B0FA80F050F089
:100260002000C0B24009C0B2012803D1DFF8E40881
:10027000006806E04FF48040B0FA80F0DFF8E00854
:1002800000684FF48041B1FA81F111F01F01C840BC
:10029000C00706D500F0A5FC401B6528DBD3032072
:1002A00098E22078800745D5DFF8A408006810F0B0
:1002B0000C0F0BD0DFF89808006810F00C0008282D
:1002C00068D1DFF88C080068C00363D45FF0804019
:1002D000B0FA80F050F02000C0B24009C0B201284E
:1002E00003D1DFF87008006806E05FF08040B0FAE4
:1002F00080F0DFF86C0800685FF08041B1FA81F1AE
:1003000011F01F01C840C00704D52069012801D0A1
:1003100001205FE2DFF83C0800685FF0F851B1FAB5
:1003200081F130F0F800626912FA01F10843DFF858
:10033000241808602078000740F1A880A0690028F0
:1003400000F0CE8001205FF00041B1FA81F1DFF8CA
:10035000142842F8210000F044FC05005FF08040C2
:10036000B0FA80F05FF08040B0FA80F0DFF8F0077C
:1003700000685FF08041B1FA81F111F01F01C840BF
:10038000C00700F1808000F02CFC401B0328E5D35F
:1003900003201FE22069002842D001205FF00041C5
:1003A000B1FA81F1DFF8C02742F8210000F019FC12
:1003B00005005FF08040B0FA80F050F02000C0B23D
:1003C0004009C0B2012803D1DFF88807006806E0C1
:1003D0005FF08040B0FA80F0DFF8840700685FF0DB
:1003E0008041B1FA81F111F01F01C840C00706D465
:1003F00000F0F7FB401B0328DBD30320EAE1DFF822
:10040000540700685FF0F851B1FA81F130F0F8005C
:10041000626912FA01F10843DFF83817086089E7CA
:1004200000205FF00041B1FA81F1DFF83C2742F88B
:10043000210000F0D6FB05005FF08040B0FA80F0AC
:1004400050F02000C0B24009C0B2012803D1DFF84B
:100450000407006806E05FF08040B0FA80F0DFF843
:10046000000700685FF08041B1FA81F111F01F01CF
:10047000C840C0077FF55EAF00F0B3FB401B032808
:10048000DAD30320A6E1012000F0AEFB207840077C
:1004900040F1EA80DFF8D406006850F08050DFF8C1
:1004A000CC160860DFF8C406006810F08050009099
:1004B0000098DFF8BC06006850F48070DFF8B016D2
:1004C000086000F08EFB0500DFF8A4060068C00598
:1004D0002DD400F086FB401B6528F5D3032079E17D
:1004E00000205FF00041B1FA81F1DFF8782642F890
:1004F000210000F076FB05005FF08040B0FA80F04C
:100500005FF08040B0FA80F0DFF8540600685FF0DA
:100510008041B1FA81F111F01F01C840C007B5D583
:1005200000F05FFB401B0328E6D3032052E1E068A4
:10053000012808D1DFF83C06006850F00100DFF820
:100540003416086037E0E068002810D1DFF8240690
:10055000006840084000DFF81C160860DFF8140649
:10056000006830F00400DFF80C16086023E0E06853
:10057000052810D1DFF8FC05006850F00400DFF812
:10058000F4150860DFF8EC05006850F00100DFF8B2
:10059000E41508600FE0DFF8DC0500684008400063
:1005A000DFF8D0150860DFF8CC05006830F00400F3
:1005B000DFF8C0150860E06800282AD000F011FBC1
:1005C00005005FF08040B0FA80F05FF08040B0FA44
:1005D00080F050F04000C0B24009C0B2022803D100
:1005E000DFF89005006802E0DFF8740500685FF04E
:1005F0008041B1FA81F111F01F01C840C00733D426
:1006000000F0EFFA401B41F289318842D9D3032030
:10061000E0E000F0E6FA05005FF08040B0FA80F01C
:100620005FF08040B0FA80F050F04000C0B2400966
:10063000C0B2022803D1DFF83C05006802E0DFF811
:10064000200500685FF08041B1FA81F111F01F01CF
:10065000C840C00708D500F0C4FA401B41F28931F8
:100660008842D9D30320B5E0E069002800F0B180CA
:10067000DFF8DC04006810F00C00082800F0A78008
:10068000E069022875D100208021B1FA81F1DFF8FC
:10069000D82442F8210000F0A4FA05004020B0FA66
:1006A00080F050F02000C0B24009C0B2012803D150
:1006B000DFF8A004006805E04020B0FA80F0DFF821
:1006C000A00400684021B1FA81F111F01F01C84077
:1006D000C00706D500F085FA401B0328DED30320AF
:1006E00078E0206AB0F5803F09D1DFF86404006843
:1006F00030F40030A1680843DFF854140860DFF8D4
:100700005004006830F47410216A0843616A084399
:10071000DFF83C14086001208021B1FA81F1DFF894
:10072000482442F8210000F05CFA05004020B0FAAD
:1007300080F050F02000C0B24009C0B2012803D1BF
:10074000DFF81004006805E04020B0FA80F0DFF820
:10075000100400684021B1FA81F111F01F01C84076
:10076000C00736D400F03DFA401B0328DED3032037
:1007700030E000208021B1FA81F1DFF8EC2342F86B
:10078000210000F02EFA05004020B0FA80F050F071
:100790002000C0B24009C0B2012803D1DFF8B40381
:1007A000006805E04020B0FA80F0DFF8B40300688C
:1007B0004021B1FA81F111F01F01C840C00708D5EE
:1007C00000F00FFA401B0328DED3032002E00120D3
:1007D00000E0002032BD70B504000D000026DFF8F7
:1007E0009803006810F00700A84211D2DFF88803D0
:1007F0000068C008C0002843DFF87C130860DFF8F9
:100800007803006810F00700A84201D00120F4E04E
:100810002078800709D5DFF83803006830F0F00051
:10082000A1680843DFF8281308602078C00740F16A
:10083000A4806068012820D14FF48040B0FA80F095
:1008400050F02000C0B24009C0B2012803D1DFF847
:100850000403006806E04FF48040B0FA80F0DFF84F
:10086000000300684FF48041B1FA81F111F01F01DB
:10087000C840C00743D40120BFE0606802281DD1F2
:100880004020B0FA80F050F02000C0B24009C0B261
:10089000012803D1DFF8BC02006805E04020B0FA6F
:1008A00080F0DFF8BC0200684021B1FA81F111F05C
:1008B0001F01C840C00722D401209EE05FF08040A5
:1008C000B0FA80F050F02000C0B24009C0B2012858
:1008D00003D1DFF88002006806E05FF08040B0FAE4
:1008E00080F0DFF87C0200685FF08041B1FA81F1AE
:1008F00011F01F01C840C00701D401207DE0DFF8DE
:1009000050020068800880006168084390490860D0
:1009100000F067F90600606801280ED18C48006875
:1009200010F00C00042828D000F05BF9801B41F285
:1009300089318842F2D303205FE0606802280ED13B
:100940008348006810F00C00082816D000F049F920
:10095000801B41F289318842F2D303204DE07C486C
:10096000006810F00C0F08D000F03BF9801B41F23A
:1009700089318842F3D303203FE07F48006810F0BC
:10098000070085420ED27C480068C008C00028439A
:10099000794908607848006810F00700A84201D043
:1009A00001202AE02078400707D56948006830F424
:1009B000E060E1680843664908602078000708D5D0
:1009C0006348006830F46050216950EAC100604912
:1009D000086000F013F85E4909685FF07062B2FACF
:1009E00082F2664B11F0F001D140C95CC8405B490E
:1009F0000860002000F0DDF8002070BD00B585B073
:100A000001A85F49102200F001F95E480088ADF8A6
:100A10000000002000200020002100204C48006839
:100A200010F00C01042902D0082902D020E04A4825
:100A30001FE001A910F470124FF47053B3FA83F35E
:100A4000DA40515CC0030FD5414800686A4610F493
:100A500000304FF48043B3FA83F3D840805C3E4AC1
:100A6000B2FBF0F0484302E0474800FB01F000E031
:100A7000394805B000BD39480068704780B5FFF7B8
:100A8000FAFF334909685FF4E012B2FA82F23F4B91
:100A900011F46051D140C95CC84002BD0F21016012
:100AA0002C490968490303D55FF4A021416009E09E
:100AB00028490968C90303D55FF48031416001E02A
:100AC000002141602249096811F400318160214907
:100AD0000968C90702D50121016101E00021016116
:100AE0001C49096811F0F8015FF0F852B2FA82F27D
:100AF000D14041611F490968490702D50521C160FC
:100B000008E01C490968C90702D50121C16001E05C
:100B10000021C16012490968C90702D5012181611C
:100B200001E0002181610B490968C90102D5022158
:100B3000C16101E00121C1610549096811F48031F9
:100B400001620349096811F47011416270470000A5
:100B5000041002400010024000127A000C00002035
:100B60002410024080044242000042421C10024015
:100B70000070004020100240002002408444000821
:100B800064440008620C000800093D00DC440008D1
:100B900080B51C48006850F010001A490860032016
:100BA00000F0C4F8002000F004F800F003F9002081
:100BB00002BD10B50400FFF75EFF4FF47A71B0FB81
:100BC000F1F000F0CDF8002221005FF0FF3000F0DE
:100BD000B1F8002010BD0C480068401C0A490860AC
:100BE000704709480068704711B581B00024FFF7CD
:100BF000F8FF0400FFF7F5FF001B01998842F9D3C5
:100C000013BD00000020024070120020103A07D3EC
:100C100030B4B1E83810103AA0E83810F9D230BC3E
:100C2000530724BFB1E80810A0E8081044BF51F8EA
:100C3000043B40F8043BD20724BF31F8022B20F8D4
:100C4000022B44BF0B7803707047083A07D3B1E812
:100C50000810083A40F8043B40F804CBF7D2530799
:100C6000E4E7010210F00701474800684FF6FF0271
:100C70001040464A52EA0121084343490860704740
:100C800041480068C0F302207047012110F01F02A4
:100C900091403F4A40B2400942F82010704740B2AC
:100CA000002808D509013B4A40B210F00F00801817
:100CB00000F8041C03E00901374A40B28154704730
:100CC00010B410F00700D0F10703052B01D3042363
:100CD00001E0D0F10703041D072C01D2002000E041
:100CE000C01E012414FA03F35B1E19408140012346
:100CF00013FA00F0401E1040084310BC704780B546
:100D0000411EB1F1807F01D301200EE0401E234936
:100D100008600F215FF0FF30FFF7C1FF002020497E
:100D2000086007201F490860002002BD80B5FFF75A
:100D300099FF01BD70B504000D0016000020FFF7FB
:100D40009FFF32002900FFF7BBFF0100200040B2E7
:100D5000FFF7A5FF70BD80B540B2FFF796FF01BD5C
:100D600080B5FFF7CCFF02BD042806D10D4800680E
:100D700050F004000B49086005E00A48006830F0B4
:100D800004000849086070470CED00E00000FA0517
:100D900000E100E018ED00E000E400E014E000E015
:100DA00018E000E010E000E080B500F001F801BDBF
:100DB0007047010280B53D48006850F001003B4992
:100DC00008603A48006810F0010000900098032085
:100DD000FFF7ACFF002200217FF00B00FFF7AAFF16
:100DE000002200217FF00A00FFF7A4FF002200216B
:100DF0007FF00900FFF79EFF002200217FF0040032
:100E0000FFF798FF002200217FF00300FFF792FF19
:100E1000002200217FF00100FFF78CFF002200215B
:100E20005FF0FF30FFF786FF2148006830F0E06098
:100E300050F000701E49086001BD81B01D48006877
:100E400050F040001B4908601A48006810F040004C
:100E50000090009801B0704700B58FB004A8FFF76C
:100E60001DFE0C20049000200B9001200A90002011
:100E7000079004A8FFF73AF9002801D000F072F9B2
:100E8000012000904FF400700190684600F06CF96A
:100E9000002801D000F066F901205FF48031B1FA3A
:100EA00081F1054A42F821000FB000BD1810024040
:100EB00004000140141002400004424238B50025ED
:100EC0009B4800680468FFF763FE00F027F800F015
:100ED00070F800F020F900F0F8F89648006896499C
:100EE0000968401A820894480168944800F078FA2A
:100EF00005000121924800F08FFA92490860A5424E
:100F000007D190480068002803D18B48006800F0A2
:100F1000D5F800F0BFF800F089FAFEE700B593B00D
:100F2000092009905FF480300A9000200B90012086
:100F30000F90022010905FF4803011905FF4E01069
:100F4000129009A8FFF7D2F8002801D000F00AF9A2
:100F50000F20049002200590002006904FF480603E
:100F6000079000200890022104A8FFF734FC002815
:100F700001D000F0F7F810200090002003906846A0
:100F800000F0F2F8002801D000F0ECF8FFF773FD54
:100F90004FF47A71B0FBF1F0FFF7E2FE0420FFF7A7
:100FA000E3FE002200215FF0FF30FFF7C3FE13B025
:100FB00000BD00B585B06448006850F0100062497B
:100FC00008606148006810F01000009000985E48CA
:100FD000006850F020005C4908605B48006810F031
:100FE0002000009000985848006850F004005649CE
:100FF00008605548006810F00400009000985248BE
:10100000006850F00800504908604F48006810F030
:101010000800009000984FF4604001900320029077
:1010200001A94A4800F01CFA48F2FF500190032041
:10103000029001A9464800F013FA4FF6FF600190B4
:101040000320029001A9434800F00AFA4FF400700F
:101050000190012002900220049001A93C4800F078
:10106000FFF94FF48070019001200290022004905B
:1010700001A9384800F0F4F900224FF40071344817
:1010800000F0C9FA00224FF48071324800F0C3FA30
:1010900005B000BD80B500224FF480712D4800F0EE
:1010A000BAFA6420FFF7A0FD01224FF480712948AD
:1010B00000F0B1FA6420FFF797FD01BD80B54168EB
:1010C000006880F30888884701BD80B522481C4924
:1010D00008605FF0FF301A494860194800F0C6FA0E
:1010E0001E48006850F080501C4908601B4800688A
:1010F00010F08050009000981848006850F0006090
:10110000164908601548006810F0006000900098CB
:1011100000F074FB01BD80B511480849086007481C
:1011200000F04CF9002801D000F01CF801BD0000CF
:101130000800002004000020000000205C120020B5
:10114000481200206C1200201810024000100140CC
:1011500000080140000C0140002800401C10024023
:1011600000300240FEE7000038B5040000250020F2
:101170002078C00773D58648006850F080508449B5
:1011800008608348006810F0805000900098814803
:10119000006850F480707F490860FFF722FD050069
:1011A0007C480068C00506D4FFF71BFD401B65287E
:1011B000F6D303206AE07848006810F440700028F5
:1011C00045D0616811F44071884240D0724800688F
:1011D00030F4407001214FF40042B2FA82F26F4BBA
:1011E00043F8221000214FF40042B2FA82F26B4B16
:1011F00043F8221068490860C00728D5FFF7F1FCC2
:1012000005005FF08040B0FA80F05FF08040B0FAF7
:1012100080F050F04000C0B24009C0B2022802D1B4
:101220005D48006801E05E4800685FF08041B1FA07
:1012300081F111F01F01C840C00708D4FFF7D1FCAD
:10124000401B41F289318842DBD303201EE0524823
:10125000006830F44070616808434F4908602078A6
:10126000800707D54F48006830F44040A168084324
:101270004C4908602078C00607D54A48006830F419
:101280008000E168084347490860002032BD30B55E
:1012900085B0040001A844491022FFF7B7FC434879
:1012A0000088ADF800000022002000250021002366
:1012B000012C35D0022C58D0102C66D1394A126836
:1012C0003B4B1B68DB012AD501A812F470134FF4C5
:1012D0007054B4FA84F4E3401B5CD00312D5314857
:1012E00000686C4610F400304FF48045B5FA85F57F
:1012F000E840055DD00308D52E48B0FBF5F003FBB0
:1013000000F102E02C4800FB03F12648006840028F
:1013100001D5080003E048000321B0FBF1F034E000
:101320001D48026840F202301040B0F5817F02D1C2
:101330004FF4004018E012F44070B0F5007F06D181
:1013400017480068800702D549F640400CE012F4C7
:101350004070B0F5407F06D115480068800302D583
:101360004FF2244000E000200FE0FFF787FB0D491B
:10137000096811F440415FF40032B2FA82F2D140C0
:10138000491C4900B0FBF1F0FFE705B030BD00009B
:101390001C10024000700040201002400004424235
:1013A000241002400410024074440008B20D0008EA
:1013B0000010024000127A0000093D0010B5040040
:1013C000002C01D101200AE06079002804D100201E
:1013D00020712000FFF731FD01206071002010BD59
:1013E00030B400230379012B01D1022012E0012344
:1013F000037102234371002304E051F82340056880
:101400002C605B1C9342F8D30121417100210171D2
:101410000068006830BC704700200020024810EBD4
:101420008100006880B27047006C004080B50022E7
:101430000749084800F0EEF90749064800F002FAAB
:101440000649044800F008FD024800F006FA01BD14
:1014500010000020040D002044000020A8000020FF
:10146000F8B400250024002500220026002307E010
:10147000DFF8B8512D6835EA04046C4D2C605B1C14
:10148000102B80F0C680012414FA03F50C682C4060
:10149000AC42F4D14E68002E27D0012E1AD0022E75
:1014A0001DD0032E2FD0112E16D0122E1AD0604F21
:1014B000BE421AD05F4FBE4217D05F4FBE4214D01B
:1014C0005E4FBE4211D05E4FBE420ED05D4FBE4257
:1014D0000BD01AE0CA6818E0CA68121D15E0CA6885
:1014E000083212E0CA680C320FE08A68002A01D183
:1014F000042207E08A68012A02D10822056101E07E
:101500000822456101E00022FFE7FF2C01D8050019
:1015100000E0051DFF2C01D89E0002E0B3F1080693
:10152000B6002F685FF00F0C1CFA06FC37EA0C07B8
:1015300012FA06F63E432E604D68ED009FD5424DEF
:101540002D6855F00105404E35603F4D2D6815F072
:1015500001050095009D3D4D9E0855F826500F262B
:1015600013F00307FFB2BF00BE40B543384EB04290
:1015700001D100260FE0374EB04201D101260AE02A
:10158000354EB04201D1022605E0344EB04201D1C1
:10159000032600E0042613F00307FFB2BF00BE409D
:1015A00035432A4E9F0846F827504D68ED0305D570
:1015B0002B4D2D6825432A4E356004E0284D2D68BB
:1015C000A543274E35604D68AD0305D5254D2D68E3
:1015D0002543244E356004E0224D2D68A543214E5D
:1015E00035604D68ED0205D51F4D2D6825431E4E13
:1015F000356004E01C4D2D68A5431B4E35604D68D9
:10160000AD027FF535AF094D2D682C43074D2C6099
:1016100035E7F1BC7047D2B2002A02D089B201612D
:1016200002E089B209040161704700000C04014026
:101630000000111000001210000021100000221004
:101640000000311000003210181002400800014064
:1016500000080140000C014000100140001401404E
:1016600000040140040401400804014010B50400D6
:101670000020002C01D1012068E0607C002804D10A
:10168000002020742000FFF7E7FB02206074200098
:1016900000F062F8002803D004206074012055E0B7
:1016A000200000F077F8002803D0042060740120A7
:1016B0004CE020684068C008C00021684860A0680D
:1016C000002807D0DFF88800006840084000DFF8F5
:1016D00080100860DFF87C00006830F46070A1685A
:1016E0000843DFF870100860606810F1010F01D046
:1016F000606809E00120FFF7CAFD002803D104203B
:101700006074012022E0401E2168896809090901EE
:1017100051EA1041226891602168C968090C0904E6
:1017200080B208432168C860200000F04DF800280E
:1017300003D004206074012008E00020E073012041
:1017400060730120A07301206074002010BD0000B0
:10175000306C00402C6C004038B504000025002C93
:1017600001D1012015E02068406830F008002168B0
:101770004860FFF736FA050020684068000707D484
:10178000FFF72FFA401BB0F57A7FF5D9032000E070
:10179000002032BD38B504000025FFF722FA05000D
:1017A00020684068800607D4FFF71BFA401BB0F59D
:1017B0007A7FF5D9032006E02068406850F01000D9
:1017C00021684860002032BD38B50400002520683B
:1017D000406830F0100021684860FFF702FA050009
:1017E00020684068800607D4FFF7FBF9401BB0F57E
:1017F0007A7FF5D9032000E0002032BD01205FF49C
:101800000001B1FA81F1024A42F82100704700005C
:1018100000000E4280B5002801D1022011E0D0F86E
:101820001432002B02D00023C0F81432002901D05A
:10183000C0F81012012180F8FC11027000F0D6FDF2
:10184000002002BD0022002903D0C0F8141200229B
:1018500000E002221000C0B2704780B500F0FAFD2F
:10186000002002BD10B504006168C9B22000D4F8A0
:10187000142252689047200000F0F3FD002010BDB4
:101880000020704710B50224D0F81422002A07D097
:10189000C9B2D0F8142212689047002800D1002461
:1018A0002000C0B210BD80B5C9B2D0F81422526871
:1018B0009047002002BD10B5040014F5027001F03D
:1018C000DBF80120C4F8F401B4F80E02C4F8F80102
:1018D00094F8080210F01F00C0B2002803D00228BC
:1018E0000DD006D311E014F50271200000F01EFEA9
:1018F00012E014F50271200000F044FE0CE014F533
:101900000271200000F064FE06E094F8080210F076
:101910008001200000F0B9FD002010BD10B50400CA
:1019200008001100C0B200282BD114F58270D4F841
:10193000F421032A35D1C26883689A420FD28268A3
:10194000C368D21A82608268C3689A4201D28268F0
:1019500000E0C26892B2200001F005F921E0D4F85D
:1019600014020069002808D094F8FC01032804D16F
:101970002000D4F8141209698847200001F0FCF80F
:101980000FE0D4F81412896900290AD094F8FC11E8
:10199000032906D10100C9B22000D4F814229269AB
:1019A0009047002010BD10B504001000C9B20029F6
:1019B00056D114F11401D4F8F421022A45D1CA6891
:1019C0008B689A4210D28A68CB68D21A8A608A6879
:1019D00092B20100200001F0ABF8002300220021A8
:1019E000200000F088FD30E04868CA68B0FBF2F3E0
:1019F00002FB1300002817D14868CA68904213D32D
:101A00004868D4F8F81188420ED200220021200044
:101A100001F08EF80020C4F8F80100230022002114
:101A2000200000F068FD10E0D4F81402C06800281F
:101A300008D094F8FC01032804D12000D4F8141233
:101A4000C9688847200001F0A2F894F80002012834
:101A500015D12000FFF714FF002084F800020EE0EB
:101A6000D4F814024069002809D094F8FC01032836
:101A700005D1C9B22000D4F8142252699047002041
:101A800010BD10B50400402300220021200000F00A
:101A9000EFFC4020C4F810014023002280212000E8
:101AA00000F0E6FC40202062012084F8FC01D4F81C
:101AB0001802002806D06168C9B22000D4F81422A8
:101AC00052689047002010BD01740020704790F8C4
:101AD000FC1180F8FD11042180F8FC1100207047F2
:101AE00090F8FD1180F8FC110020704780B590F847
:101AF000FC11032908D1D0F81412C969002903D0B8
:101B0000D0F81412C9698847002002BDBFF34F8F77
:101B1000DFF8E007006810F4E060DFF8DC17084346
:101B2000DFF8D0170860BFF34F8F00BFFDE710B597
:101B300004004FF4836000F0E7FCC4F81802D4F806
:101B40001802002801D102202FE0D4F81802002149
:101B5000C0F814145FF00061C0F810140021C0F840
:101B600008140021C0F80C14002180F80714022189
:101B700080F80014002180F80114002180F802147C
:101B8000002180F80314002180F80414022180F859
:101B90000514002180F80614D4F81C024068804720
:101BA000002801D0022000E0002010BD10B5040084
:101BB000D4F818020021C0F808140021C0F80C1451
:101BC000022180F80014002180F80114022180F81D
:101BD0000514D4F8180200280AD0D4F81C02806832
:101BE0008047D4F8180200F09BFC0020C4F81802CB
:101BF000002010BD70B5002300220024D0F8185238
:101C00000E7816F06006F6B2002E27D0202E54D1A2
:101C10004A78002A1BD0022A0AD006D3042A0DD003
:101C200009D3062A10D00CD314E000F05FF914E0B9
:101C300000F0A2F911E000F037FA0EE000F0B4FA7B
:101C40000BE000F0E5FA08E000F0EBFA05E000F048
:101C500009F902E000F024FF02242EE04E78062E5F
:101C600004D00A2E15D00B2E19D023E04D88ADB22A
:101C70002D0AADB2212D07D1DFF88036CA880A2A95
:101C800001DB092200E0CA8892B2190000F040FF8F
:101C900013E0012205F2144100F03AFF0DE08A78CA
:101CA000002A03D18878C5F8140402E000F0F8FE99
:101CB000022402E000F0F4FE02242000C0B270BD55
:101CC0001B210180DFF83806704700207047002094
:101CD00070471CB50300D3F8184294F80004042898
:101CE00040F09480D4F80804002877D120780028A8
:101CF00003D1D4F80C0401281ED02078212833D138
:101D0000D4F80C0405282FD16078C4F81004D4F856
:101D10001004A17810EB0120C4F81004D4F81004CA
:101D2000E17810EB0140C4F81004D4F810042179D4
:101D300010EB0160C4F810040020C4F80C0400206B
:101D4000C4F80804032084F80004002084F8020486
:101D5000002084F80304002084F8040494F80004AC
:101D600084F80504002059E02078412825D1D4F8D2
:101D70000C04052821D16078C4F81004D4F81004AC
:101D8000A17810EB0120C4F81004D4F81004E17815
:101D900010EB0140C4F81004D4F81004217910EBC2
:101DA0000160C4F81004D4F81004D3F81C12C968F8
:101DB00088470028C0D0022030E00020C4F80C047E
:101DC0000020C4F8080400208DF800000120ADF8C0
:101DD00006006946180000F063FEADE7D4F8080479
:101DE0000228A9D3D4F80804801E4FF48061D4F8E7
:101DF000102401FB0021D4F80C242000D3F81C325D
:101E00001B699847002897D0022007E094F8000447
:101E1000072802D1180000F037FA002016BD002074
:101E200070470020704700207047002070470A214B
:101E30000180DFF8D004704780B5C9B2072909DAFC
:101E4000DFF8C414D0F81C02006800F034FEDFF89C
:101E5000B80400E0002002BD002901D0C0F81C1227
:101E60000020704710B50400D4F8180290F8002440
:101E7000022A0FD090F80024032A0BD090F80024F7
:101E8000052A07D090F80024062A03D090F80024F1
:101E9000092A1BD1022280F80024002280F80124A4
:101EA000002280F80224002280F80324002280F817
:101EB000042490F8002480F80524002280F80624E9
:101EC0000022C0F808240022C0F80C24DFF83004F7
:101ED000407DC00606D52000FFF7C4FC2000FFF7B8
:101EE000BCFC02E04888FEF77FFE10BD80B50A000A
:101EF000D0F81812D388002B1ED091F80034022B92
:101F000003D091F80034052B12D15388C1F808345E
:101F1000D288C1F80C24032281F8002491F800240F
:101F200081F80524D1F80C2492B200F00AFE22E0D8
:101F3000110000F0B5FD1EE091F80034052B03D030
:101F400091F80034022B13D1012081F807040620F8
:101F500081F80004002081F80204002081F80304C5
:101F6000002081F8040491F8000481F8050402E0DF
:101F7000110000F095FD01BD38B50400D4F81852E9
:101F800000200020C88800287DD095F80004022891
:101F900003D095F8000409286BD14888C5F80804D7
:101FA000C888C5F80C04D5F80804002821D1D5F854
:101FB0000C04042801D3022000E0092085F8000465
:101FC000002085F80204002085F80304002085F82D
:101FD000040495F8000485F80504002028702120E9
:101FE00068704120A87003222900200000F090FDB5
:101FF00059E0D5F80804022827D3092085F8000401
:10200000002085F80204002085F80304002085F8EC
:10201000040495F8000485F80504D5F80804801E2A
:102020004FF48061D5F8102401FB0020D5F80C2472
:102030002900D4F81C325B699847D5F80C2492B279
:102040000100200000F064FD2DE00F2085F8000461
:10205000002085F80204002085F80304002085F89C
:10206000040495F8000485F80504200000F018FD2C
:1020700019E00020C5F80C040020C5F80804200071
:1020800000F00EFD0FE0022085F80004002085F826
:102090000204002085F80304002085F8040495F864
:1020A000000485F8050431BD38B50400D4F8185291
:1020B00095F80004032802D0062840D06DE0D5F83A
:1020C0000C0400282AD0042085F80004002085F89C
:1020D0000204002085F80304002085F8040495F824
:1020E000000485F80504D5F8080400280CD12878E8
:1020F000412809D105F201420021D5F81004D4F895
:102100001C329B69984719E005F201420121D5F87C
:102110001004D4F81C329B6998470FE0052085F81D
:102120000004002085F80204002085F80304002044
:1021300085F8040495F8000485F805042DE095F869
:102140000704012810D1072085F80004012085F834
:102150000204002085F80304002085F8040495F8A3
:10216000000485F8050417E095F80704002813D14A
:102170006348007D40070FD5022085F80004002049
:1021800085F80204002085F80304002085F8040483
:1021900095F8000485F80504FFE7062205F20141E1
:1021A000200000F0B5FC31BDD0F8180290F8001402
:1021B0000A2916D1022180F80014002180F80114A8
:1021C000002180F80214002180F80314002180F817
:1021D000041490F8001480F80514002180F8061407
:1021E00015E00A2180F800140E2180F80114002166
:1021F00080F80214002180F80314002180F80414F0
:1022000090F8001480F80514002180F80614704737
:1022100080B5D0F81812012211F5806100F078FC29
:1022200001BDD0F8180290F8001402290FD090F8E0
:10223000001403290BD090F80014052907D090F85A
:102240000014062903D090F8001409291BD102219B
:1022500080F80014002180F80114002180F8021495
:10226000002180F80314002180F8041490F8001471
:1022700080F80514002180F806140021C0F8081425
:102280000021C0F80C14704710B50400D4F81802EF
:10229000002180F807141A49097D490710D5062145
:1022A00080F80014002180F80214002180F8031443
:1022B000002180F8041490F8001480F8051410BD73
:1022C000082180F80014002180F80214002180F811
:1022D0000314002180F8041490F8001480F8051409
:1022E0002000FFF7BFFAD4F81C0280688047FFF790
:1022F0000DFCFEE70CED00E00400FA059200002062
:10230000800000209C0000202811002080B500687B
:102310007E4988421BD17E48006850F400007C4909
:1023200008607B48006810F40000009000980022CC
:1023300000211320FEF7FEFC1320FEF70CFD002207
:1023400000211420FEF7F6FC1420FEF704FD01BD69
:1023500080B510F57B71D0F81C04FFF7ACFA01BD15
:1023600080B5C9B210EB4112D2F81C22C9B2D0F824
:102370001C04FFF7D3FA01BD80B5C9B210EB4112BE
:10238000D26BC9B2D0F81C04FFF70DFB01BD80B5BC
:10239000D0F81C04FFF7AAFB01BD10B50400012111
:1023A000A068022801D1012100E00121C9B2D4F8BE
:1023B0001C04FFF789FBD4F81C04FFF762FB10BD77
:1023C00010B50400D4F81C04FFF781FBA0690028B5
:1023D00005D05048006850F006004E49086010BD16
:1023E00080B5D0F81C04FFF77BFB01BD10B50400DD
:1023F0004948C0F81C444848C4F8200243484649AC
:10240000086008204449486002204349886003204E
:102410004149C86000204049886100203E49C861A8
:1024200000203D4908623C4800F0BCFB002801D078
:10243000FEF798FE182300220021D4F8200201F0B4
:102440000FF8582300228021D4F8200201F008F868
:10245000002010BD80B5D0F8200200F026FC00203E
:1024600002BD80B5D0F8200200F039FC002002BD8A
:1024700010B51C001300DBB2220092B2C9B2D0F832
:10248000200200F0FCFC002010BD80B5C9B2D0F8DD
:10249000200200F07EFD002002BD80B5C9B2D0F858
:1024A000200200F0ACFD002002BDD0F82002C9B22D
:1024B0000A0607D5C9B211F07F0110EB411090F860
:1024C0002A0006E0C9B211F07F0110EB411090F82C
:1024D0000A02704780B5C9B2D0F8200200F0B9FCFA
:1024E000002002BD80B59BB2C9B2D0F8200200F036
:1024F00024FD002002BD80B59BB2C9B2D0F82002F5
:1025000000F0EEFC002002BD04487047005C004073
:102510001C10024010ED00E0C8040020E808002074
:1025200080B500F0BFFF01BD7047000010B500246A
:102530004A78002A18D0012A1CD0032A17D0052A6D
:1025400009D0062A04D0082A0BD0092A06D014E0A4
:1025500000F0EBF813E000F092F910E000F0BBF9A6
:102560000DE000F027FA0AE000F042FA07E000F080
:1025700058FA04E000F066FA01E000F091FA200059
:10258000C0B210BD70B504000D00002694F8FC0127
:10259000032817D1287902280FDA29002000D4F85F
:1025A000142292689047E88800280AD1F6B2002EDB
:1025B00007D1200000F0E0FA03E02900200000F03D
:1025C0006FFA03E02900200000F06AFA002070BDD5
:1025D00070B505000E000024B188307810F060005E
:1025E000202807D131002800D5F81422926890479E
:1025F000002099E0707800285DD0012830D00328B1
:1026000040F0908095F8FC01022802D003280BD0FE
:1026100021E0C9B2002906D0C9B2802903D0C9B2CD
:102620002800FFF732FF1AE07088002809D1C9B2EC
:10263000002906D0C9B2802903D0C9B22800FFF70B
:1026400024FF31002800D5F8142292689047280012
:1026500000F092FA03E03100280000F021FA61E076
:1026600095F8FC01022802D003280BD01EE0C9B265
:10267000002906D0C9B2802903D0C9B22800FFF7CB
:1026800004FF17E0708800280FD17F20014209D095
:10269000C9B22800FFF701FF31002800D5F8142245
:1026A00092689047280000F067FA03E031002800A4
:1026B00000F0F6F936E095F8FC01022802D0032874
:1026C00008D02AE07F20014203D0C9B22800FFF7DA
:1026D000DCFE26E0C9B2080607D5C9B211F07F00BA
:1026E00015EB001010F1140606E0C9B211F07F00DE
:1026F00015EB001010F58276C9B22800FFF7D5FE61
:10270000002802D00120306001E000203060022269
:102710003100280000F0FCF903E03100280000F04F
:10272000BFF9FFE72000C0B270BD38B504000D004E
:10273000688880B2000AC0B2012808D002281FD0E1
:10274000032830D006286DD0072879D088E0694664
:10275000207CD4F8102212689047BDF800100029A0
:1027600000F08C80E988002900F08880BDF8001016
:10277000EA88914279D2BDF80010ADF8001077E0F8
:10278000207C002807D16846D4F81412896A88474B
:102790000221417006E06846D4F81412C96A8847DD
:1027A00002214170D9E7A878002808D0022814D067
:1027B0000CD304281FD017D3052823D029E069465D
:1027C000207CD4F81022526890472AE06946207C89
:1027D000D4F810229268904723E06946207CD4F810
:1027E0001022D26890471CE06946207CD4F8102261
:1027F0001269904715E06946207CD4F8102252698E
:1028000090470EE06946207CD4F8102292699047E8
:1028100007E06A466988C9B22000D4F814329B6B7D
:1028200098479AE7207C002805D16846D4F814120E
:10283000496B884791E72900200000F031F91DE03D
:10284000207C002807D16846D4F81412096B884709
:102850000721417081E72900200000F021F90DE0F7
:102860002900200000F01CF908E0E988ADF800100C
:10287000BDF800200100200000F04AF931BD38B554
:1028800004008888002822D1C88800281FD18878B1
:1028900010F07F0594F8FC01032803D1200000F01C
:1028A000FFF817E084F8FE512900C9B22000FFF7B5
:1028B00011FE200000F060F9EDB2002D03D00220DF
:1028C00084F8FC0106E0012084F8FC0102E020000D
:1028D00000F0E6F831BD38B504000D0068883449D1
:1028E000087033480078022804DB2900200000F03B
:1028F000D7F85CE094F8FC01022802D003281ED02F
:1029000051E02B480078002815D0294800786060F5
:10291000032084F8FC01264801782000FEF7B2FF6E
:10292000022804D12900200000F0BAF83FE020007E
:1029300000F022F902E0200000F01EF937E01C4808
:10294000007800280ED1022084F8FC011848007895
:102950006060174801782000FEF7A5FF200000F016
:102960000BF91FE0124800786168884217D061684F
:10297000C9B22000FEF797FF0D48007860600C4850
:1029800001782000FEF77EFF022804D129002000F4
:1029900000F086F80BE0200000F0EEF802E02000E6
:1029A00000F0EAF803E02900200000F079F831BDDA
:1029B0007412002080B5CA88012A02D000F070F895
:1029C00015E090F8FC21022A02D0032A08D00CE07E
:1029D00000218160012210F1080100F099F806E061
:1029E0000122011D00F094F801E000F059F801BD4A
:1029F00080B590F8FC21921E012A0FD80121C160F8
:102A0000D0F80412002903D0C16851F00201C1605E
:102A1000022210F10C0100F07BF801E000F040F818
:102A200001BD10B50400488801280AD10120C4F86E
:102A300004022000D4F8142292689047200000F08D
:102A40009BF810BD10B5040094F8FC01801E01280D
:102A50000ED8488801280AD10020C4F804022000BA
:102A6000D4F8142292689047200000F085F802E024
:102A7000200000F015F810BD0A7802704A78427004
:102A80008A78CB7812EB032242800A794B7912EBD9
:102A9000032282808A79C97912EB0121C1807047B3
:102AA00010B5040080212000FFF7EFFC002120007A
:102AB000FFF7EBFC10BDF8B504000D001700002671
:102AC000002C1AD0200000F019F84000801C38803B
:102AD0003888F6B27055761C0320F6B27055761C15
:102AE00008E02078F6B27055641C761C0020F6B21F
:102AF0007055761C20780028F3D1F1BD002101E04B
:102B0000491C401C0278002AFAD10800C0B2704764
:102B100080B50223C0F8F43192B2826192B2C261F0
:102B200013009BB20A000021FFF7DCFC002002BD6D
:102B300080B513009BB20A000021FFF7D3FC0020F0
:102B400002BD80B50323C0F8F43192B2C0F8082169
:102B500092B2C0F80C2113009BB20A000021FFF7CB
:102B6000CAFC002002BD80B513009BB20A00002100
:102B7000FFF7C1FC002002BD80B50421C0F8F411AC
:102B8000002300220021FFF7ADFC002002BD80B52C
:102B90000521C0F8F411002300220021FFF7ABFC4F
:102BA000002002BD10B586B004000020002C01D129
:102BB000012078E094F8E903002805D1002084F88A
:102BC000E8032000FFF7A2FB032084F8E903206854
:102BD00000F0B6FC211D83B068462022FEF716F8EF
:102BE0000EBC206800F09EFC0021206800F0B3FCC1
:102BF00000201DE0012114EB401282F8291014EB93
:102C0000401181F8280014EB40118886002114EB54
:102C1000401282F82B10002114EB40129163002126
:102C200014EB4012D163002114EB40121164401CDC
:102C30000F28DFD3002020E0002114EB401282F89F
:102C4000091214EB401181F8080214EB4011888638
:102C5000002114EB401282F80B12002114EB4012F9
:102C6000C2F81812002114EB4012C2F81C12002105
:102C700014EB4012C2F82012401C0F28DCD3211D97
:102C800083B068462022FDF7C1FF0EBC206800F02B
:102C900064FC002084F82400012084F8E903206803
:102CA00001F004F8002006B010BD10B5040094F83F
:102CB000E803012801D1022010E0012084F8E80394
:102CC00001212000FFF730FC206800F0EDFF2068B4
:102CD00000F02CFC002084F8E803002010BD10B5A3
:102CE000040094F8E803012801D102200FE001203C
:102CF00084F8E803206800F023FC206800F0C1FF9E
:102D0000206800F0D3FF002084F8E803002010BD05
:102D100010B504000020206800F0CAFF000402D5AE
:102D2000200000F098F9206800F0C2FF40050FD5A0
:102D30002068B0F844004FF6FF3108402168A1F840
:102D400044002000FFF729FB0021200000F081F85B
:102D5000206800F0ADFF400408D52068B0F84400BA
:102D60004BF6FF7108402168A1F84400206800F08C
:102D70009FFF800408D52068B0F844004DF6FF712D
:102D800008402168A1F84400206800F091FFC004C9
:102D900019D52068B0F840004FF6FB710840216853
:102DA000A1F840004FF43D402168A1F84000200008
:102DB000FFF716FB2068B0F844004EF6FF7108409C
:102DC0002168A1F84400206800F072FF000520D5BA
:102DD0002068B0F844004FF2FF7108402168A1F864
:102DE00044002068B0F8400050F008002168A1F8C5
:102DF00040002068B0F8400050F004002168A1F8BD
:102E00004000206800F054FFC00402D42000FFF707
:102E1000D7FA206800F04CFF80050BD52068B0F889
:102E200044004FF6FF5108402168A1F844002000FB
:102E3000FFF7ADFA206800F03BFFC00508D5206819
:102E4000B0F844004FF6FF6108402168A1F8440043
:102E500010BD10B5040094F8E803012801D1022048
:102E60000CE0012084F8E80384F82410C9B220683B
:102E700000F012FF002084F8E803002010BD70B5B8
:102E8000040000250020C9B2080606D5C9B211F019
:102E90007F0014EB4010283006E0C9B211F07F002B
:102EA00014EB401010F5027011F07F060670C9B2E5
:102EB000C909417092B20261C37094F8E813012904
:102EC00001D102200BE0012184F8E8130100206801
:102ED00000F053FB002084F8E8032800C0B270BD66
:102EE00010B504000020C9B211F07F0014EB4010AF
:102EF00010F50270426183610022C26100224270BB
:102F000011F07F02027094F8E823012A01D1022017
:102F100012E0012284F8E8237F22114204D101004B
:102F2000206800F0CAFC03E00100206800F0C5FC46
:102F3000002084F8E803002010BD10B50400002034
:102F4000C9B211F07F0014EB401028304261836158
:102F50000022C2610122427011F07F02027094F8D7
:102F6000E823012A01D1022012E0012284F8E8239B
:102F70007F22114204D10100206800F09EFC03E092
:102F80000100206800F099FC002084F8E80300208C
:102F900010BD38B504000D000021EDB2280607D59C
:102FA000EDB215F07F0014EB401010F1280104E0A1
:102FB000EDB214EB451010F502710120887015F088
:102FC0007F0008702800C0B2C009487094F8E80378
:102FD000012801D1022011E0012084F8E8032068D3
:102FE00000F0CAFD7F20054204D114F57B712068F2
:102FF00000F063FE002084F8E803002032BD10B525
:1030000004000020C9B2080606D5C9B211F07F003D
:1030100014EB4010283004E0C9B214EB411010F555
:1030200002700022827011F07F020270C9B2C909D9
:10303000417094F8E813012901D102200AE001212E
:1030400084F8E8130100206800F0CFFD002084F828
:10305000E803002010BDF8B5040000250027002675
:103060000020ADF802000020ADF800002FE020683D
:10307000008848F60F7108402168088014F128057F
:103080002068B0F85000297810EBC100216811EBDE
:103090004000D0F804048005800DE8616869E969A2
:1030A0000818686100212000FFF766F994F82400F1
:1030B00000280CD0A869002809D194F8240050F009
:1030C00080002168A1F84C00002084F824002068CA
:1030D000B0F84400ADF80200000440F1BF81BDF833
:1030E000020010F00F06F6B2002E40F08B80BDF803
:1030F0000200C006BBD514F5027520680088ADF843
:103100000000BDF80000000520D52068B0F8500090
:10311000297810EBC100216811EB4000D0F80C04B5
:103120008005800DE861EB699BB2AA8814F57B717C
:10313000206800F0E1FD2068008840F68F710840AB
:10314000216808802000FFF703F9C0E7BDF8000000
:103150000004BCD52068008840F68F7108402168C3
:1031600008802068B0F85000297810EBC100216871
:1031700011EB4000D0F80C048005800DE861E8698F
:1031800000280AD0EB699BB2AA886969206800F020
:10319000B3FD6869E9690818686100212000FFF73C
:1031A000DFF82068B0F85000216811EB400000F211
:1031B0000C4029693F290CD3296949092A7C12F05E
:1031C0001F0F00D1491E890251F4004189B20160EC
:1031D00008E0296949082A7CD20700D5491C8902E0
:1031E00089B20160206800884BF68F71084090F426
:1031F000805090F4005040F4004050F0800021686E
:10320000088064E72068F6B230F82600ADF80000C8
:10321000BDF80000000440F189802068F6B230F863
:10322000260040F68F7108402168F6B221F826008A
:10323000F6B214EB461010F50275A87A002817D1E3
:103240002068B0F85000297810EBC100216811EB1C
:103250004000D0F80C048705BF0DBFB2002F4BD043
:103260003B009BB2AA886969206800F045FD43E0F5
:103270002068297830F82100400417D52068B0F87C
:103280005000297810EBC100216811EB4000D0F804
:1032900004048705BF0DBFB2002F1ED03B009BB2B8
:1032A000EA886969206800F027FD16E02068B0F818
:1032B0005000297810EBC100216811EB4000D0F8D4
:1032C0000C048705BF0DBFB2002F06D03B009BB298
:1032D0002A896969206800F00FFD2068297830F894
:1032E000210048F68F71084040F4004050F0C000C3
:1032F00021682A7821F82200E869BFB23818E8610D
:103300006869BFB238186861A869002803D0BFB2E5
:103310002869874204D229782000FFF721F805E0C8
:10332000AB696A6929782000FFF7DAFDBDF8000073
:1033300000067FF5CCAEF6B214EB461010F128056E
:103340002068F6B230F8260048F60F710840216870
:10335000F6B221F82600A87A002818D12068B0F823
:103360005000297810EBC100216811EB4000D0F823
:1033700004048005800DE861E86900284DD0EB6900
:103380009BB2AA886969206800F099FC45E0206832
:10339000297830F82100400618D52068B0F8500090
:1033A000297810EBC100216811EB4000D0F804042B
:1033B0008005800DE861E86900281FD0EB699BB2A9
:1033C000EA886969206800F07AFC17E02068B0F8A4
:1033D0005000297810EBC100216811EB4000D0F8B3
:1033E0000C048005800DE861E869002806D0EB69CF
:1033F0009BB22A896969206800F061FC20682978FD
:1034000030F8210048F68F71084040F4404050F0F9
:10341000800021682A7821F822002068B0F8500046
:10342000297810EBC100216811EB4000D0F80404AA
:103430008005800DE8616869E96908186861A86914
:10344000002804D129782000FEF796FF3FE6AB69FB
:103450006A6929782000FFF770FD38E60020F2BD88
:1034600010B4002489B20C0607D589B211F07F018F
:1034700010EB411010F1280404E089B210EB411068
:1034800010F5027492B2002A03D10020A072A3802A
:1034900004E00120A072E380180C2081002010BC01
:1034A0007047000000B9704738B5A0F108042068E3
:1034B000082833D310F0070F30D1C046C046184853
:1034C000416809B18C4203D26160446017E019463B
:1034D0004B680BB1A342FAD30B685D18AC421BD307
:1034E000A54204D12268D2180A600C4607E04A6857
:1034F0001AB123681B199A420ED362604C6061684E
:1035000051B1226813198B4206D100230360086869
:103510008018206048686060C046C04631BD000029
:10352000641200200EB4002003B0704700214FF455
:103530003D41B0F840201143A0F8401000207047F2
:1035400000214FF43D41B0F8402032EA0101A0F8DB
:10355000401000207047002070470EB40121A0F8F1
:1035600040100021A0F840100021A0F844100021D4
:10357000A0F85010002003B0704710B4CA78002A99
:1035800005D0022A0FD024D3032A16D02DE00A78C2
:1035900030F8222048F68F131A4052F400720B784C
:1035A00020F8232021E00A7830F8222048F68F13F3
:1035B0001A400B7820F8232017E00A7830F82220F0
:1035C00048F68F131A4052F4C0620B7820F823207B
:1035D0000BE00A7830F8222048F68F131A4052F494
:1035E00080620B7820F82320FFE70A7830F8222049
:1035F00048F68F731A400B781A4342F4004252F097
:1036000080020B7820F823208A7A002A40F08980F3
:103610004A78002A30D0B0F850200B7812EBC30261
:1036200010EB420212F580628B889BB25B089BB262
:103630005B0013600A7830F8222052060CD50A7815
:1036400030F8222048F68F731A4042F4004252F0BC
:10365000C0020B7820F823200A7830F8222048F6A0
:10366000BF731A4092F0200242F4004252F08002EE
:10367000097820F821201DE1B0F850200B7812EBDA
:10368000C30210EB420212F581628B889BB25B0889
:103690009BB25B001360B0F850200B7812EBC302B2
:1036A00010EB420202F20C420B693F2B0CD30B6968
:1036B0005B090C7C14F01F0F00D15B1E9B0253F4BE
:1036C00000439BB2136008E00B695B080C7CE407C5
:1036D00000D55B1C9B029BB213600A7830F8222055
:1036E00052040CD50A7830F8222048F68F731A401D
:1036F00042F4404252F080020B7820F823200A78EE
:1037000030F822204BF68F731A4092F4805292F4D4
:10371000005242F4004252F08002097820F8212041
:10372000C8E00A7830F8222048F68F731A4042F435
:10373000014252F080020B7820F82320B0F850208C
:103740000B7812EBC30210EB420212F58062CB88B9
:103750009BB25B089BB25B001360B0F850200B7803
:1037600012EBC30210EB420212F581620B899BB28D
:103770005B089BB25B0013604A78002A4FD10A783D
:1037800030F8222052040CD50A7830F8222048F66E
:103790008F731A4042F4404252F080020B7820F8B6
:1037A00023200A7830F8222052060CD50A7830F807
:1037B000222048F68F731A4042F4004252F0C002B1
:1037C0000B7820F823200A7830F8222048F68F73EF
:1037D0001A4042F4004252F0C0020B7820F8232035
:1037E0000A7830F822204BF68F731A4092F48052F8
:1037F00092F4005242F4004252F080020B7820F81A
:1038000023200A7830F8222048F6BF731A4042F489
:10381000004252F08002097820F821204AE00A781C
:1038200030F8222052040CD50A7830F8222048F6CD
:103830008F731A4042F4404252F080020B7820F815
:1038400023200A7830F8222052060CD50A7830F866
:10385000222048F68F731A4042F4004252F0C00210
:103860000B7820F823200A7830F8222048F68F734E
:103870001A4042F4404252F080020B7820F8232094
:103880000A7830F8222048F6BF731A4042F400420A
:1038900052F080020B7820F823200A7830F822209A
:1038A0004BF68F731A4042F4004252F080020978BE
:1038B00020F82120002010BC704770B504000D00D6
:1038C0000022AE696878012840F0BC802869A969A7
:1038D000884204D22E69A869801BA86102E0AE6903
:1038E0000020A861A87A002810D133009BB2AA88D2
:1038F0006969200000F0E3F9B4F85000297810EB72
:10390000C10014EB4000C0F8046489E0287834F862
:10391000200040062ED5687800281DD1B4F850004C
:10392000297810EBC10014EB400000F20C403F2E50
:103930000AD3710916F01F0F00D1491E890251F4F4
:10394000004189B2016013E07108F20700D5491CFB
:10395000890289B201600BE06878012808D1B4F8C7
:103960005000297810EBC10014EB4000C0F804644B
:103970002A892DE0687800281DD1B4F850002978F4
:1039800010EBC10014EB400000F204403F2E0AD3BC
:10399000710916F01F0F00D1491E890251F4004130
:1039A00089B2016013E07108F20700D5491C890251
:1039B00089B201600BE06878012808D1B4F85000A2
:1039C000297810EBC10014EB4000C0F80464EA88C9
:1039D00033009BB292B26969200000F070F96878F8
:1039E00000280DD1287834F8200048F68F7108405F
:1039F00040F4004050F0C000297824F821000FE086
:103A0000687801280CD1287834F8200048F68F71A6
:103A1000084040F4404050F08000297824F821000C
:103A2000287834F8200048F6BF71084090F0100064
:103A300090F0200040F4004050F08000297824F8F5
:103A4000210097E02869A969884204D22E69A869F3
:103A5000801BA86102E0AE690020A861A87A002856
:103A60001DD1B4F85000297810EBC10014EB4000D0
:103A700000F20C403F2E0AD3710916F01F0F00D13F
:103A8000491E890251F4004189B2016061E0710868
:103A9000F20700D5491C890289B2016059E06878B3
:103AA00000281DD1B4F85000297810EBC10014EBA8
:103AB000400000F204403F2E0AD3710916F01F0F98
:103AC00000D1491E890251F4004189B2016013E01E
:103AD0007108F20700D5491C890289B201600BE028
:103AE0006878012808D1B4F85000297810EBC1009B
:103AF00014EB4000C0F80464687800281DD1B4F8C5
:103B00005000297810EBC10014EB400000F20C408B
:103B10003F2E0AD3710916F01F0F00D1491E8902EA
:103B200051F4004189B2016013E07108F20700D539
:103B3000491C890289B201600BE06878012808D12C
:103B4000B4F85000297810EBC10014EB4000C0F825
:103B50000464287834F820004BF68F71084090F404
:103B6000805090F4005040F4004050F080002978DC
:103B700024F82100002070BD0A78002A11D10A78AB
:103B800030F822204BF6BF731A4092F4805292F024
:103B9000100242F4004252F08002097820F82120FD
:103BA00021E04A78002A0FD00A7830F8222048F61F
:103BB000BF731A4092F0100242F4004252F08002A9
:103BC000097820F821200EE00A7830F822204BF600
:103BD0008F731A4092F4805242F4004252F08002F5
:103BE000097820F82120002070474A78002A23D045
:103BF0000A7830F8222052060CD50A7830F82220B4
:103C000048F68F731A4042F4004252F0C0020B781B
:103C100020F823200A7830F8222048F6BF731A4093
:103C200092F0100292F0200242F4004252F0800220
:103C3000097820F8212022E00A7830F82220520466
:103C40000CD50A7830F8222048F68F731A4042F4D7
:103C5000404252F080020B7820F823200A7830F896
:103C600022204BF68F731A4092F4805292F4005245
:103C700042F4004252F08002097820F8212000200E
:103C800070470121A0F840100021A0F84410032142
:103C9000A0F8401000207047C9B2002902D180214D
:103CA000A0F84C100020704700207047002070479B
:103CB0000021B0F84410080070470020704770B42D
:103CC0009BB25B1C5B10002400250025002692B2ED
:103CD00010EB420010F580661C0009E00D78491CCD
:103CE000087855EA00253580B61CB61C491C641EB0
:103CF000002CF3D170BC704730B49BB25B1C5B10DE
:103D00000024002592B210EB420010F580651C00E3
:103D100005E0286808802D1D491C491C641E002CE4
:103D2000F7D130BC704700002DE9F84381460E0002
:103D300014001D0001205FF000080027DFF88C014F
:103D4000007E012801D1022045E00120DFF87C112E
:103D500008764CF2503000F061F8C0B2002835D13E
:103D6000B9F1010F01D1012705E0B9F1020F01D12D
:103D7000022700E004275FF0000801E018F10108C5
:103D80005FFA88F8FFB2B84520D2200029005FFA18
:103D900088F85FEA081200F0A7F802000B00110093
:103DA00089B25FFA88F816EB480000F02CF84CF264
:103DB000503000F033F8DFF818110968490849005D
:103DC000DFF80C211160C0B20028D7D00021DFF845
:103DD000FC201176C0B2BDE8F2833D4800680006C1
:103DE00007D53D483D4908603D483C4908600020F2
:103DF00000E0012070473648006850F080003449E8
:103E00000860002070470022304BDA61304A1268A7
:103E100052F001022E4B1A600180704738B5040041
:103E2000FCF7DFFE05002B480068C0070BD514F136
:103E3000010FF8D0002C04D0FCF7D3FE401B8442C5
:103E4000F1D2032017E023480068800602D5202025
:103E5000204908601F480068C00607D42148006850
:103E6000C00703D41B480068400703D500F004F8DE
:103E7000012000E0002032BD16480068C00605D5CC
:103E80001248C06950F002001049C861114800682A
:103E9000400705D50D48C06950F001000B49C861C5
:103EA00010480068C0070BD50848C06950F00400EE
:103EB0000649C8610B48006840084000094908608D
:103EC00014200449086070470000000028120020F8
:103ED000102002400C2002402301674504200240CC
:103EE000AB89EFCD1C200240D2B2203A22BF21FA8A
:103EF00002F0002170472032D141D040484091402B
:103F0000D140484070470000F8B504000D0001267C
:103F10000027DFF8F000007E012801D102204CE0EC
:103F20000120DFF8E01008762068022816D14CF254
:103F30005030FFF773FF002839D1012000F03EF820
:103F40004CF25030FFF76AFF0600DFF8BC00006853
:103F500030F00400DFF8B010086028E04CF2503078
:103F6000FFF75CFF002822D15FF0FF302860A768D0
:103F700001E017F58067E0684FF48061A26801FBFB
:103F80000020874213D2380000F029F84CF250305C
:103F9000FFF744FF0600DFF87000006830F0020011
:103FA000DFF864100860F6B2002EE2D02F60002027
:103FB000DFF8501008763000C0B2F2BD0020DFF804
:103FC0004410C8611048006850F004000E490860B1
:103FD0000D48006850F040000B4908607047002110
:103FE000084AD1610849096851F00201064A116086
:103FF000064908600448006850F040000249086023
:1040000070470000281200201020024014200240B7
:1040100080B5012001E0FFF7E0FEC0B20028FAD130
:10402000002002BD80B50120012001E0FFF7E3FE82
:10403000C0B20028FAD1002002BD00B585B0002032
:10404000002000900C4800680C490968401A800A5A
:10405000401C0021019109490968039104906946B7
:1040600001A8FFF751FFC0B2002801D0012000E0F5
:10407000002005B000BD000004000020000000206A
:10408000F8B504000D0016000027002700E03F1DD2
:10409000B7420FD23A59002379190220FFF744FEA4
:1040A000002805D1385979598842F0D0022002E021
:1040B000012000E00020F2BD10B40023002303E043
:1040C00004785C54401C5B1C9342F9D3080010BC7C
:1040D0007047C9B2012906D132205070002090707B
:1040E0000020D07005E03220507000209070002039
:1040F000D0700020704700001220088028487047C8
:10410000042008802748704780B5C0B2002805D138
:104110000A0025492548FEF7CEFC04E00A002249A2
:104120002248FEF7C8FC204802BD80B50A001E499F
:104130001F48FEF7C0FC1C4802BD80B5C0B2002875
:1041400005D10A0018491B48FEF7B5FC04E00A0037
:1041500015491848FEF7AFFC134802BD80B5C0B240
:10416000002805D10A0010491348FEF7A4FC04E01A
:104170000A000D491048FEF79EFC0B4802BD80B5B1
:10418000C0B2002805D10A0007490C48FEF793FC8D
:1041900004E00A0004490948FEF78DFC024802BD0C
:1041A0002C00002040000020280F002000440008C0
:1041B000E444000894440008C4440008A4440008EF
:1041C00000600008FCFB0008FCFB000800A24A0499
:1041D000F9400008014100082B410008094100088E
:1041E0003B4100085D4100087F41000812010002C8
:1041F00000000040830411DF0002010203010000FF
:10420000040309042F1B0008AD1B0008F51B000860
:10421000D31C0008CF1C0008CB1C00082B1E000874
:104220001F1E0008231E0008271E0008C11C0008CE
:10423000C11C0008C11C00082F1E0008391E000800
:1042400009021B00010102C0320904000000FE0146
:10425000020609210BFF0000041A01000A060002F1
:1042600000000040010000008C43000811400008DD
:10427000254000083B40000881400008B940000884
:10428000D34000081348006850F00100114908604D
:1042900011480068114908400F4908600D4800683E
:1042A0000F4908400B4908600A48006830F4802034
:1042B000084908600848006830F4FE0006490860B4
:1042C0005FF41F00074908605FF00060064908605E
:1042D0007047000000100240041002400000FFF888
:1042E000FFFFF6FE0810024008ED00E019E050F86C
:1042F000041BCB0744BFA9F101035918121F002367
:10430000042A41F8043BF9D25FEA827C0B4604D5CB
:104310004FF0000CA1F800C09B1CD10744BF002146
:10432000197050F8042B002AE1D170477047FEE75E
:10433000FEE7FEE7FEE770477047704780B5FCF781
:104340004AFCFCF731FD01BD80B50448FEF7E0FCF6
:1043500001BD80B50148FEF7DBFC01BDC8040020AB
:1043600010B450F8041B79B1026843681218083081
:10437000DC0744BFA9F10104E31852F8044B43F8E9
:10438000044B091FF9D1ECE710BC704740496E742B
:1043900065726E616C20466C6173682020202F303E
:1043A0007830383030303030302F31362A303034B9
:1043B0004B67000010B5074979441831064C7C441E
:1043C000163404E00A68081D511888470146A142C6
:1043D000F8D110BD080000002800000011FFFFFF09
:1043E000B00D0000C80400200000000075FFFFFFB2
:1043F000C4000000CCFDFFFF000000200000000012
:1044000053544D333220446F776E4C6F61642046B5
:1044100069726D7761726520557064617465000022
:1044200000F00BF8002801D0FFF7C4FF0020C046C1
:10443000C046FCF743FD00F002F80120704700F091
:1044400001B800000746384600F002F8FBE700001C
:1044500080B5C046C046024A11001820ABBEFBE73B
:104460002600020002030405060708090A0B0C0DCA
:104470000E0F101002030405060708090A0B0C0DA5
:104480000E0F1010000000000000000001020304E5
:1044900006070809303030303030303030303141AC
:1044A0000000000044465520496E746572666163E1
:1044B0006500000001488047014800478542000828
:1044C000D144000844465520436F6E66696700007A
:1044D000C046C046C046C046FFF7A2FF000000002D
:1044E0000102030464656E7275737300FFF7FEBF0B
:1044F000FFF7FEBFFFF7FEBFFFF7FEBFFFF7FEBFF0
:10450000FFF7FEBFFFF7FEBFFFF7FEBFFFF7FEBFDF
:10451000FFF7FEBFFFF7FEBFFFF7FEBFFFF7FEBFCF
:10452000FFF7FEBFFFF7FEBFFFF7FEBFFFF7FEBFBF
:10453000FFF7FEBFFFF7FEBFFFF7FEBFFFF7FEBFAF
:10454000FFF7FEBFFFF7FEBFFFF7FEBFFFF7FEBF9F
:10455000FFF7FEBFFFF7FEBFFFF7FEBFFFF7FEBF8F
:10456000FFF7FEBFFFF7FEBFFFF7FEBFFFF7FEBF7F
:10457000FFF7FEBFFFF7FEBFFFF7FEBFFFF7FEBF6F
:10458000FFF7FEBFFFF7FEBFFFF7FEBFFFF7FEBF5F
:04000005080044D1DA
:00000001FF
